:060000000C9441000C9479
:1000060000000C9400000C9400000C9400000C946A
:1000160000000C9400000C9400000C9400000C945A
:1000260000000C9400000C9400000C9400000C944A
:1000360000000C9400000C9400000C9400000C943A
:1000460000000C9400000C9400000C9400000000CA
:1000560074657320746573207465730043454B00A3
:1000660080C00C006002560004006C0262000200B0
:10007600040054000200700266000000F894EE27A7
:10008600ECBBF1E0FBBFEBBFE5BFF8E1F1BDE1BDC5
:100096008DE0A2E0BB27ED938A95E9F780E098E032
:1000A600A0E6ED930197E9F7E8E6F0E085919591F2
:1000B600009761F0A591B59105901590BF01F001EB
:1000C60005900D920197E1F7FB01F0CFEFE5EDBF4B
:1000D600E8E0EEBFC0E6D2E00C947100E8E0EBBBCE
:1000E600E7EFEABBE0E0E8BBE7BBE5BBEFEFE4BB6D
:1000F600E0E0E2BBE1BBE3BFE2BFECBFEFBDEEBDBC
:10010600EDBDECBDE7BDE6BDEBBDEABDE9BDE8BDB5
:10011600E2BDE5BDE4BDE3BDE5BFE4BFE9BFEAB9C5
:10012600E0E8E8B9E0E0E0BFE6B9EDB9E6BFA0E196
:1001360075D09DD0A0E6B2E060D0AEE19DD0CB995F
:1001460006C095D0ACE6B2E058D0A4E695D045BA44
:10015600F20131962F01EDCFFFCFAA93EBB3EF70EB
:10016600AE2FE881E07FEA2BEBBB8BE08A95F1F7B7
:10017600DA9A8BE18A95F1F7DA988BE18A95F1F7AD
:1001860074C0AA93A881E9DFE881E295E883A88193
:10019600E4DF88EC90E00197F1F767C0AA93E88165
:1001A600F0E0E059FD4FE081A981AE0FEADF7980EA
:1001B600688022960895A2E0E4DFA3E05DD0ACE07B
:1001C600E0DFA1E0DEDFA3E057D0E0E06E2E7E2E7A
:1001D6000895AA93A881AA3011F0791440F0E0E0BE
:1001E600EA936394A62DDADFA881AA30F1F173941D
:1001F600D89AA881C6DFD89838C0BA93AA931A931A
:10020600A981BA81ED91A983BA831E2FE03019F036
:10021600A12FDFDFF5CF188123960895AA93EAB3BD
:10022600E06FEABBD29AD09AD19ADA98D898D99840
:100236009880E881E058E0937202E881E054E09308
:100246007302A4E119D01BD01AD019D0A0E285DF21
:1002560080E991E00197F1F7A8E293DFA4E091DF4E
:10026600A5E88FDFA6E08DDFA6DF21960895A3DF40
:10027600E0E0EA93A0E092CFB0E00C944901A0E35D
:100286006CDF80E991E00197F1F70895109639F057
:1002960080EA9FE00197F1F7A8951197C9F70895AD
:00000001FF
