:020000000C945E
:1000020062000C9400000C9400000C9400000C940C
:1000120000000C9400000C9400000C9400000C945E
:1000220000000C9400000C9400000C9400000C944E
:1000320000000C9400000C9400000C9400000C943E
:1000420000000C9400000C9400000C9400000C942E
:10005200000000010203040506070809101112132B
:10006200141516171819202122232425262728299A
:1000720030313233343536373839404142434445E2
:100082004647484950515253545556575859000003
:1000920074657320746573207465730043454B0067
:1000A20080C03C00700254000C0060029200040008
:1000B2006C029E000200060090000200AC02A20048
:1000C2000000F894EE27ECBBF1E0FBBFEBBFE5BF0D
:1000D200F8E1F1BDE1BD8DE0A2E0BB27ED938A9589
:1000E200E9F780E098E0A0E6ED930197E9F7E4EA0A
:1000F200F0E085919591009761F0A591B5910590F9
:100102001590BF01F00105900D920197E1F7FB01F7
:10011200F0CFEFE5EDBFE8E0EEBFC0E6D2E00C9431
:100122009200E8E0EBBBE7EFEABBE0E0E8BBE7BB4D
:10013200E5BBEFEFE4BBE0E0E2BBE1BBE3BFE2BF64
:10014200ECBFEFBDEEBDEDBDECBDE7BDE6BDEBBD69
:10015200EABDE9BDE8BDE2BDE5BDE4BDE3BDE5BF85
:10016200E4BFE9BFEAB9E0E8E8B9E0E0E0BFE6B938
:10017200EDB9E6BFA0E17AD0A2D0A0E6B2E065D0A8
:10018200AEE1A2D0CB9906C09AD0ACE6B2E05DD087
:10019200A4E69AD0A0E7B2E0A60DB71DEC91E5BBAC
:1001A200F30131963F01E8CFFFCFAA93EBB3EF7093
:1001B200AE2FE881E07FEA2BEBBB8BE08A95F1F76B
:1001C200DA9A8BE18A95F1F7DA988BE18A95F1F761
:1001D20074C0AA93A881E9DFE881E295E883A88147
:1001E200E4DF88EC90E00197F1F767C0AA93E88119
:1001F200F0E0E455FD4FE081A981AE0FEADF99807E
:10020200888022960895A2E0E4DFA3E05DD0ACE00E
:10021200E0DFA1E0DEDFA3E057D0E0E08E2E9E2EED
:100222000895AA93A881AA3011F09B1440F0E0E04F
:10023200EA938394A82DDADFA881AA30F1F193948E
:10024200D89AA881C6DFD89838C0BA93AA931A93CD
:10025200A981BA81ED91A983BA831E2FE03019F0EA
:10026200A12FDFDFF5CF188123960895AA93EAB371
:10027200E06FEABBD29AD09AD19ADA98D898D998F4
:10028200B880E881E058E093AE02E881E054E09360
:10029200AF02A4E119D01BD01AD019D0A0E285DF99
:1002A20080E991E00197F1F7A8E293DFA4E091DF02
:1002B200A5E88FDFA6E08DDFA6DF21960895A3DFF4
:1002C200E0E0EA93A0E092CFB0E00C946F01A0E3EB
:1002D2006CDF80E991E00197F1F70895109639F00B
:1002E20080EA9FE00197F1F7A8951197C9F7089561
:00000001FF
