:020000000C945E
:100002006A000C9400000C9400000C9400000C9404
:1000120000000C9400000C9400000C9400000C945E
:1000220000000C9400000C9400000C9400000C944E
:1000320000000C9400000C9400000C9400000C943E
:1000420000000C9400000C9400000C9400000C942E
:10005200000000010203040506070809101112132B
:10006200141516171819202122232425262728299A
:1000720030313233343536373839404142434445E2
:100082004647484950515253545556575859000003
:10009200646574696B206B652D0043454B0001005C
:1000A2002D4E414E00494E46000080C03C008E025B
:1000B20054000A006002920004006A029C000200DE
:1000C200060090000100CA02A0000200CE02AC00AD
:1000D2000000F894EE27ECBBF1E0FBBFEBBFE5BFFD
:1000E200F8E1F1BDE1BD8DE0A2E0BB27ED938A9579
:1000F200E9F780E098E0A0E6ED930197E9F7EEEAF0
:10010200F0E085919591009761F0A591B5910590E8
:100112001590BF01F00105900D920197E1F7FB01E7
:10012200F0CFEFE5EDBFE8E0EEBFC0E6D2E00C9421
:100132009A00E8E0EBBBE7EFEABBE0E0E8BBE7BB35
:10014200E5BBEFEFE4BBE0E0E2BBEFEFE1BBE0E0F9
:10015200E3BFE2BFECBFEFBDEEBDEDBDECBDE7BD61
:10016200E6BDEBBDEABDE9BDE8BDE2BDE5BDE4BD6E
:10017200E3BDE5BFE4BFE9BFEAB9E0E8E8B9E0E022
:10018200E0BFE6B9EDB9E6BFA0E10E9498010E9486
:10019200C5015A924A92AEE6B2E00E940601A0E67A
:1001A200B2E00E948701E0E0EA93AAE00E945501D2
:1001B200AEE6B2E00E948701AEE10E94CC01CB998B
:1001C20009C00E94C501AAE6B2E00E948701A4E626
:1001D2000E94CC01F20131962F01AEE8B2E0A40DEB
:1001E200B51DEC91E5BBECE3F0E0E415F50559F43F
:1001F20044245524F30131963F01AEE8B2E0A60D46
:10020200B71DEC91E2BBC3CFFFCFBA93AA93A991DA
:10021200B991E991F99130962AF4E095F0953196E9
:100222006DE26D93E89480E197E20DD088EE93E061
:100232000AD084E6992707D08AE005D06E2F10D025
:1002420066276C9308956627E817F90720F06395EF
:10025200E81BF90BC9F7662311F416F008956894A8
:10026200605D6D930895AA93EBB3EF70AE2FE881B2
:10027200E07FEA2BEBBB8BE08A95F1F7DA9A8BE110
:100282008A95F1F7DA988BE18A95F1F77BC0AA9308
:10029200A881E9DFE881E295E883A881E4DF88ECC0
:1002A20090E00197F1F76EC0AA93E881F0E0E25383
:1002B200FD4FE081A981AE0FEADF99808880229606
:1002C2000895A2E0E4DFA3E00E94CC01ACE0DFDF0E
:1002D200A1E0DDDFA3E00E94CC01E0E08E2E9E2EA5
:1002E2000895AA93A881AA3011F09B1448F0E0E087
:1002F200EA938394A82DD8DFA881AA3009F442C0DA
:100302009394D89AA881C3DFD8983CC0BA93AA9391
:100312001A93A981BA81ED91A983BA831E2FE03085
:1003220019F0A12FDEDFF5CF188123960895AA9345
:10033200EAB3E06FEABBD29AD09AD19ADA98D89807
:10034200D998B880E881E058E093D002E881E0547F
:10035200E093D102A4E10E94CC010E94CF010E944D
:10036200CF010E94CF01A0E27EDF80E991E00197F8
:10037200F1F7A8E28CDFA4E08ADFA5E888DFA6E037
:1003820086DF9FDF219608950E946201E0E0EA93F2
:10039200A0E00C945501B0E00C94D701A0E30E94B8
:1003A200340180E991E00197F1F70895109639F050
:1003B20080EA9FE00197F1F7A8951197C9F7089590
:00000001FF
