:080000000C9475000C94000043
:100008000C9400000C9400000C9400000C94000068
:100018000C9400000C9400000C9400000C94000058
:100028000C9400000C9400000C9400000C94000048
:100038000C9400000C9400000C9400000C94000038
:100048000C9400000C9400000C94000000010203C2
:1000580004050607080910111213141516171819A4
:1000680020212223242526272829303132333435EC
:10007800363738394041424344454647484950514C
:100088005253545556575859000043454B00736115
:1000980061746E79612062616E67756E0064657463
:1000A800696B206B652D000001002D4E414E004903
:1000B8004E46000080C03C009D02540004006002CF
:1000C80092000F00640296000A007302A500020065
:1000D800060090000100D902B0000200DD02BC0059
:1000E8000000F894EE27ECBBF1E0FBBFEBBFE5BFE7
:1000F800F8E1F1BDE1BD8DE0A2E0BB27ED938A9563
:10010800E9F780E098E0A0E6ED930197E9F7EEEBD8
:10011800F0E085919591009761F0A591B5910590D2
:100128001590BF01F00105900D920197E1F7FB01D1
:10013800F0CFEFE5EDBFE8E0EEBFC0E6D2E00C940B
:10014800A500E8E0EBBBE7EFEABBE0E0E8BBE7BB14
:10015800E5BBEFEFE4BBE0E0E2BBEFEFE1BBE0E0E3
:10016800E3BFE2BFECBFEFBDEEBDEDBDECBDE7BD4B
:10017800E6BDEBBDEABDE9BDE8BDE2BDE5BDE4BD58
:10018800E3BDE5BFE4BFE9BFEAB9E0E8E8B9E0E00C
:10019800E0BFE6B9EDB9E6BFA0E10E94B301CB9993
:1001A80009C00E94E001A0E6B2E00E94A201A4E614
:1001B8000E94E701F20131962F01ADE9B2E0A40DEA
:1001C800B51DEC91E5BBECE3F0E0E415F50559F459
:1001D80044245524F30131963F01ADE9B2E0A60D60
:1001E800B71DEC91E2BBE1E0F0E0E615F70531F46C
:1001F8000E94E001A4E6B2E00E94A201E1E0F0E082
:10020800E615F705A9F00E94E0015A924A92ADE777
:10021800B2E00E942101A3E7B2E00E94A201E0E05F
:10022800EA93AAE00E947001ADE7B2E00E94A20141
:10023800AEE10E94E701B3CFFFCFBA93AA93A99189
:10024800B991E991F99130962AF4E095F0953196B3
:100258006DE26D93E89480E197E20DD088EE93E02B
:100268000AD084E6992707D08AE005D06E2F10D0EF
:1002780066276C9308956627E817F90720F06395B9
:10028800E81BF90BC9F7662311F416F00895689472
:10029800605D6D930895AA93EBB3EF70AE2FE8817C
:1002A800E07FEA2BEBBB8BE08A95F1F7DA9A8BE1DA
:1002B8008A95F1F7DA988BE18A95F1F77BC0AA93D2
:1002C800A881E9DFE881E295E883A881E4DF88EC8A
:1002D80090E00197F1F76EC0AA93E881F0E0E3524D
:1002E800FD4FE081A981AE0FEADF998088802296D0
:1002F8000895A2E0E4DFA3E00E94E701ACE0DFDFBD
:10030800A1E0DDDFA3E00E94E701E0E08E2E9E2E53
:100318000895AA93A881AA3011F09B1448F0E0E050
:10032800EA938394A82DD8DFA881AA3009F442C0A3
:100338009394D89AA881C3DFD8983CC0BA93AA935B
:100348001A93A981BA81ED91A983BA831E2FE0304F
:1003580019F0A12FDEDFF5CF188123960895AA930F
:10036800EAB3E06FEABBD29AD09AD19ADA98D898D1
:10037800D998B880E881E058E093DF02E881E0543A
:10038800E093E002A4E10E94E7010E94EA010E94D2
:10039800EA010E94EA01A0E27EDF80E991E001978C
:1003A800F1F7A8E28CDFA4E08ADFA5E888DFA6E001
:1003B80086DF9FDF219608950E947D01E0E0EA93A1
:1003C800A0E00C947001B0E00C94F201A0E30E944C
:1003D8004F0180E991E00197F1F70895109639F0FF
:1003E80080EA9FE00197F1F7A8951197C9F708955A
:00000001FF
