:0E0000000C943D000C9400000C9400000C9435
:10000E0000000C9400000C9400000C9400000C9462
:10001E0000000C9400000C9400000C9400000C9452
:10002E0000000C9400000C9400000C9400000C9442
:10003E0000000C9400000C9400000C9400000C9432
:10004E0000000C9400007465732074657320746551
:10005E00730043454B0080C00C0060025400040046
:10006E006C0260000200700264000000F894EE273B
:10007E00ECBBF1E0FBBFEBBFE5BFF8E1F1BDE1BDCD
:10008E008DE0A2E0BB27ED938A95E9F780E098E03A
:10009E00A0E6ED930197E9F7E6E6F0E085919591FC
:1000AE00009761F0A591B59105901590BF01F001F3
:1000BE0005900D920197E1F7FB01F0CFEFE5EDBF53
:1000CE00E8E0EEBFC0E6D2E00C946D00E8E0EBBBDA
:1000DE00E7EFEABBE0E0E8BBE7BBE5BBEFEFE4BB75
:1000EE00E0E0E2BBE1BBE3BFE2BFECBFEFBDEEBDC4
:1000FE00EDBDECBDE7BDE6BDEBBDEABDE9BDE8BDBE
:10010E00E2BDE5BDE4BDE3BDE5BFE4BFE9BFEAB9CD
:10011E00E0E8E8B9E0E0E0BFE6B9EDB9E6BFA0E19E
:10012E006CD096D0A0E6B2E098D0CB9904C090D017
:10013E00ACE6B2E092D0E6E4E5BBF3CFFFCFAA93F4
:10014E00EBB3EF70AE2FE881E07FEA2BEBBB8BE0D9
:10015E008A95F1F7DA9A8BE18A95F1F7DA988BE1C5
:10016E008A95F1F773C0AA93A881E9DFE881E29539
:10017E00E883A881E4DF88EC90E00197F1F766C090
:10018E00AA93E881F0E0E059FD4FE081A981AE0F1E
:10019E00EADF5980488022960895A2E063D0ACE051
:1001AE00E2DFA1E05FD0E0E04E2E5E2E0895AA932E
:1001BE00A881AA3011F0571448F0E0E0EA93439476
:1001CE00A42DDEDFA881AA3009F440C05394D89A3A
:1001DE00A881C9DFD8983AC0BA93AA931A93A98175
:1001EE00BA81ED91A983BA831E2FE03019F0A12FA9
:1001FE00DEDFF5CF188123960895AA93EAB3E06F58
:10020E00EABBD29AD09AD19ADA98D898D9987880AF
:10021E00E881E058E0937202E881E054E0937302C3
:10022E00A4E1B0E00E94450122D021D020D0A0E26E
:10023E0086DF80E991E00197F1F7A8E294DFA4E070
:10024E0092DFA5E890DFA6E08EDFA7DF2196089566
:10025E00A4DFE0E0EA93A0E093CFBEDFA4E6B0E037
:10026E000C94450180DFA3E0B0E00C944501A0E3BF
:10027E0066DF80E991E00197F1F70895109639F065
:10028E0080EA9FE00197F1F7A8951197C9F70895B5
:00000001FF
